:100000000C9453000C947B000C947B000C947B00AC
:100010000C947B000C947B000C947B000C947B0074
:100020000C947B000C947B000C947B000C947B0064
:100030000C947B000C947B000C947B000C947B0054
:100040000C9477020C947B000C9445020C941F02D4
:100050000C947B000C947B000C947B000C947B0034
:100060000C947B000C947B0000000000250028000D
:100070002B0000000000240027002A0004040404D0
:100080000404040402020202020203030303030342
:10009000010204081020408001020408102001021F
:1000A00004081020F20311241FBECFEFD8E0DEBFFA
:1000B000CDBF11E0A0E0B1E0E8EDFBE002C00590AB
:1000C0000D92AC33B107D9F721E0ACE3B1E001C048
:1000D0001D92A63EB207E1F710E0C3E5D0E004C0F0
:1000E0002197FE010E94E405C235D107C9F70E949D
:1000F000C1020C94EA050C94000090E0FC01E0576A
:10010000FF4F249184589F4FFC018491882399F0DC
:1001100090E0880F991FFC01EE58FF4FA591B49114
:10012000FC01E859FF4F859194918FB7F894EC91B9
:10013000E22BEC938FBF0895AF92BF92CF92DF92E4
:10014000EF92FF920F931F93CF93DF936C017B018C
:100150008B01040F151FEB015E01AE18BF08C0171D
:10016000D10759F06991D601ED91FC910190F08190
:10017000E02DC6010995892B79F7C501DF91CF9153
:100180001F910F91FF90EF90DF90CF90BF90AF90B5
:100190000895FC01538D448D252F30E0842F90E08D
:1001A000821B930B541710F0CF9608950197089572
:1001B000FC01918D828D981761F0A28DAE0FBF2F3B
:1001C000B11D5D968C91928D9F5F9F73928F90E091
:1001D00008958FEF9FEF0895FC01918D828D981700
:1001E00031F0828DE80FF11D858D90E008958FEF3D
:1001F0009FEF0895FC01918D228D892F90E0805C06
:100200009F4F821B91098F739927089589E491E08C
:100210000E94FA0021E0892B09F420E0822F089542
:1002200080E090E0892B29F00E94060181110C9456
:1002300000000895FC01A48DA80FB92FB11DA35A89
:10024000BF4F2C91848D90E001968F739927848FF6
:10025000A689B7892C93A089B1898C918370806419
:100260008C93938D848D981306C00288F389E02DBA
:1002700080818F7D80830895EF92FF920F931F936B
:10028000CF93DF93EC0181E0888F9B8D8C8D981349
:100290001AC0E889F989808185FF15C09FB7F89455
:1002A000EE89FF896083E889F989808183708064A1
:1002B00080839FBF81E090E0DF91CF911F910F91EC
:1002C000FF90EF900895F62E0B8D10E00F5F1F4FFB
:1002D0000F731127E02E8C8D8E110CC00FB607FC0A
:1002E000FACFE889F989808185FFF5CFCE010E9498
:1002F0001A01F1CFEB8DEC0FFD2FF11DE35AFF4FEB
:10030000F0829FB7F8940B8FEA89FB898081806225
:10031000CFCFCF93DF93EC01888D8823B9F0AA89E2
:10032000BB89E889F9898C9185FD03C0808186FDB0
:100330000DC00FB607FCF7CF8C9185FFF2CF8081FF
:1003400085FFEDCFCE010E941A01E9CFDF91CF9159
:1003500008953FB7F8948091410190914201A09196
:100360004301B091440126B5A89B05C02F3F19F069
:100370000196A11DB11D3FBFBA2FA92F982F882725
:10038000BC01CD01620F711D811D911D42E0660F00
:10039000771F881F991F4A95D1F70895FC01019096
:1003A0000020E9F73197AF01481B590BBC0189E4E4
:1003B00091E00C949C008F929F92AF92BF920F930A
:1003C0001F93CF93DF93CDB7DEB7A1970FB6F89405
:1003D000DEBF0FBECDBF19A2423008F44AE08E0145
:1003E0000F5D1F4F842E912CB12CA12CA5019401DF
:1003F0000E94C205E62FB901CA01EA30F4F4E05DBB
:10040000D801EE938D01232B242B252B79F790E037
:1004100080E0109719F0CD010E94CE01A1960FB691
:10042000F894DEBF0FBECDBFDF91CF911F910F912A
:10043000BF90AF909F908F900895E95CE1CF1F929D
:100440000F920FB60F9211242F933F934F935F9308
:100450006F937F938F939F93AF93BF93EF93FF938C
:1004600089E491E00E941A01FF91EF91BF91AF9151
:100470009F918F917F916F915F914F913F912F91BC
:100480000F900FBE0F901F9018951F920F920FB6EE
:100490000F9211242F938F939F93EF93FF93E091EB
:1004A0005901F0915A018081E0915F01F091600162
:1004B00082FD1BC09081809162018F5F8F732091BC
:1004C0006301821741F0E0916201F0E0E75BFE4FCB
:1004D000958F80936201FF91EF919F918F912F9162
:1004E0000F900FBE0F901F9018958081F4CF1F9230
:1004F0000F920FB60F9211242F933F938F939F93D8
:10050000AF93BF9380913D0190913E01A0913F0137
:10051000B091400130913C0123E0230F2D3758F575
:100520000196A11DB11D20933C0180933D01909344
:100530003E01A0933F01B093400180914101909111
:100540004201A0914301B09144010196A11DB11D4A
:100550008093410190934201A0934301B0934401E1
:10056000BF91AF919F918F913F912F910F900FBEAF
:100570000F901F90189526E8230F0296A11DB11D1C
:10058000D2CF789484B5826084BD84B5816084BD07
:1005900085B5826085BD85B5816085BD80916E0021
:1005A000816080936E001092810080918100826052
:1005B000809381008091810081608093810080918F
:1005C00080008160809380008091B100846080937E
:1005D000B1008091B00081608093B00080917A007A
:1005E000846080937A0080917A00826080937A00A0
:1005F00080917A00816080937A0080917A0080688F
:1006000080937A001092C100E0915901F0915A0153
:1006100082E08083E0915501F09156011082E091D3
:100620005701F09158018FEC808310926101E091A5
:100630005D01F0915E0186E08083E0915B01F091C5
:100640005C01808180618083E0915B01F0915C01BD
:10065000808188608083E0915B01F0915C01808102
:1006600080688083E0915B01F0915C0180818F7DE7
:10067000808382E191E00E94CE018BE191E00E94B3
:10068000CE0185E00E947D0083E00E947D0086E02F
:100690000E947D0010E4C0E0D0E010937C008091C7
:1006A0007A00806480937A0080917A0086FDFCCF86
:1006B0008091780060917900762F682F70934801BF
:1006C00060934701072E000C880B990B0E94C90408
:1006D00020E030EC4FE754E40E941F0420E030E0BB
:1006E00040EA50E40E9455050E949104709346012F
:1006F000609345018EE191E00E94CE01C0904701D8
:10070000D09048010D2C000CEE08FF084AE0C7010C
:10071000B601F7FE0DC06DE289E491E00E943C0154
:1007200066277727CB016C197D098E099F094AE05E
:100730000E94DB018BE191E00E94CE018CE291E00E
:100740000E94CE01C0904501D09046010D2C000CB6
:10075000EE08FF084AE0C701B601F7FE0DC06DE2E2
:1007600089E491E00E943C0166277727CB016C1950
:100770007D098E099F094AE00E94DB018BE191E02F
:100780000E94CE010E94A9014B015C0188EEC82E97
:1007900083E0D82EE12CF12C0E94A9016819790977
:1007A0008A099B09683E734081059105A8F321E001
:1007B000C21AD108E108F10888EE880E83E0981E7D
:1007C000A11CB11CC114D104E104F10429F7209744
:1007D00009F463CF0E940601882309F45ECF0E94CA
:1007E00000005BCFE9E4F1E01382128288EE93E02F
:1007F000A0E0B0E084839583A683B78384E091E092
:100800009183808385EC90E09587848784EC90E0E9
:100810009787868780EC90E0918B808B81EC90E0CD
:10082000938B828B82EC90E0958B848B86EC90E0AE
:10083000978B868B118E128E138E148E08950E94C4
:1008400033040C941B050E94140558F00E940D05FA
:1008500040F029F45F3F29F00C94040551110C94E9
:100860004F050C940A050E942C0568F39923B1F3F7
:10087000552391F3951B550BBB27AA2762177307C6
:10088000840738F09F5F5F4F220F331F441FAA1F5A
:10089000A9F335D00E2E3AF0E0E832D09150504016
:1008A000E695001CCAF72BD0FE2F29D0660F771FC4
:1008B000881FBB1F261737074807AB07B0E809F0AA
:1008C000BB0B802DBF01FF2793585F4F3AF09E3F2F
:1008D000510578F00C9404050C944F055F3FE4F348
:1008E000983ED4F3869577956795B795F7959F5F72
:1008F000C9F7880F911D9695879597F90895E1E0BE
:10090000660F771F881FBB1F621773078407BA071C
:1009100020F0621B730B840BBA0BEE1F88F7E09577
:1009200008950E9498046894B1110C944F0508959D
:100930000E94340588F09F5798F0B92F9927B75136
:10094000B0F0E1F0660F771F881F991F1AF0BA9573
:10095000C9F714C0B13091F00E944E05B1E008957E
:100960000C944E05672F782F8827B85F39F0B93F70
:10097000CCF3869577956795B395D9F73EF4909526
:100980008095709561957F4F8F4F9F4F0895E894A4
:1009900009C097FB3EF490958095709561957F4FC7
:1009A0008F4F9F4F9923A9F0F92F96E9BB27939575
:1009B000F695879577956795B795F111F8CFFAF485
:1009C000BB0F11F460FF1BC06F5F7F4F8F4F9F4FB6
:1009D00016C0882311F096E911C0772321F09EE814
:1009E000872F762F05C0662371F096E8862F70E07A
:1009F00060E02AF09A95660F771F881FDAF7880F54
:100A00009695879597F9089597F99F6780E870E024
:100A100060E008959FEF80EC089500240A94161674
:100A2000170618060906089500240A9412161306DC
:100A3000140605060895092E0394000C11F488236A
:100A400052F0BB0F40F4BF2B11F460FF04C06F5F86
:100A50007F4F8F4F9F4F089557FD9058440F551F5C
:100A600059F05F3F71F04795880F97FB991F61F030
:100A70009F3F79F087950895121613061406551FA7
:100A8000F2CF4695F1DF08C0161617061806991F13
:100A9000F1CF86957105610508940895E894BB2708
:100AA00066277727CB0197F908950E9468050C9473
:100AB0001B050E940D0538F00E94140520F09523B7
:100AC00011F00C9404050C940A0511240C944F05A4
:100AD0000E942C0570F3959FC1F3950F50E0551FB0
:100AE000629FF001729FBB27F00DB11D639FAA2783
:100AF000F00DB11DAA1F649F6627B00DA11D661FD2
:100B0000829F2227B00DA11D621F739FB00DA11DF2
:100B1000621F839FA00D611D221F749F3327A00DAC
:100B2000611D231F849F600D211D822F762F6A2F48
:100B300011249F5750409AF0F1F088234AF0EE0FAD
:100B4000FF1FBB1F661F771F881F91505040A9F7DA
:100B50009E3F510580F00C9404050C944F055F3FB7
:100B6000E4F3983ED4F3869577956795B795F79516
:100B7000E7959F5FC1F7FE2B880F911D969587958E
:100B800097F90895A1E21A2EAA1BBB1BFD010DC007
:100B9000AA1FBB1FEE1FFF1FA217B307E407F5072D
:100BA00020F0A21BB30BE40BF50B661F771F881F09
:100BB000991F1A9469F760957095809590959B019F
:100BC000AC01BD01CF010895EE0FFF1F0590F49118
:080BD000E02D0994F894FFCF19
:100BD800000000003C019C00C9008901FA00D8000F
:100BE800EC004261736C612E2E2E000D0A00416EDE
:100BF800616C6F672064656765723A004765726962
:0C0C08006C696D206465676572693A00D4
:00000001FF
